{
  "contractName": "IncreasingPriceCrowdsale",
  "abi": [
    {
      "constant": true,
      "inputs": [],
      "name": "getHolder",
      "outputs": [
        {
          "name": "bh",
          "type": "address"
        }
      ],
      "payable": false,
      "stateMutability": "view",
      "type": "function"
    },
    {
      "constant": true,
      "inputs": [],
      "name": "getVersion",
      "outputs": [
        {
          "name": "_version",
          "type": "uint64"
        }
      ],
      "payable": false,
      "stateMutability": "view",
      "type": "function"
    },
    {
      "constant": true,
      "inputs": [],
      "name": "hasClosed",
      "outputs": [
        {
          "name": "",
          "type": "bool"
        }
      ],
      "payable": false,
      "stateMutability": "view",
      "type": "function"
    },
    {
      "constant": true,
      "inputs": [],
      "name": "rate",
      "outputs": [
        {
          "name": "",
          "type": "uint256"
        }
      ],
      "payable": false,
      "stateMutability": "view",
      "type": "function"
    },
    {
      "constant": true,
      "inputs": [],
      "name": "weiRaised",
      "outputs": [
        {
          "name": "",
          "type": "uint256"
        }
      ],
      "payable": false,
      "stateMutability": "view",
      "type": "function"
    },
    {
      "constant": false,
      "inputs": [
        {
          "name": "_newOwner",
          "type": "address"
        }
      ],
      "name": "wantSameContract",
      "outputs": [
        {
          "name": "_newDoc",
          "type": "address"
        }
      ],
      "payable": false,
      "stateMutability": "nonpayable",
      "type": "function"
    },
    {
      "constant": true,
      "inputs": [],
      "name": "closingTime",
      "outputs": [
        {
          "name": "",
          "type": "uint256"
        }
      ],
      "payable": false,
      "stateMutability": "view",
      "type": "function"
    },
    {
      "constant": true,
      "inputs": [],
      "name": "wallet",
      "outputs": [
        {
          "name": "",
          "type": "address"
        }
      ],
      "payable": false,
      "stateMutability": "view",
      "type": "function"
    },
    {
      "constant": true,
      "inputs": [],
      "name": "version",
      "outputs": [
        {
          "name": "",
          "type": "uint64"
        }
      ],
      "payable": false,
      "stateMutability": "view",
      "type": "function"
    },
    {
      "constant": true,
      "inputs": [],
      "name": "getOwner",
      "outputs": [
        {
          "name": "_owner",
          "type": "address"
        }
      ],
      "payable": false,
      "stateMutability": "view",
      "type": "function"
    },
    {
      "constant": true,
      "inputs": [],
      "name": "owner",
      "outputs": [
        {
          "name": "",
          "type": "address"
        }
      ],
      "payable": false,
      "stateMutability": "view",
      "type": "function"
    },
    {
      "constant": true,
      "inputs": [],
      "name": "openingTime",
      "outputs": [
        {
          "name": "",
          "type": "uint256"
        }
      ],
      "payable": false,
      "stateMutability": "view",
      "type": "function"
    },
    {
      "constant": false,
      "inputs": [
        {
          "name": "bh",
          "type": "address"
        }
      ],
      "name": "setHolder",
      "outputs": [],
      "payable": false,
      "stateMutability": "nonpayable",
      "type": "function"
    },
    {
      "constant": true,
      "inputs": [
        {
          "name": "",
          "type": "uint256"
        }
      ],
      "name": "rates",
      "outputs": [
        {
          "name": "",
          "type": "uint256"
        }
      ],
      "payable": false,
      "stateMutability": "view",
      "type": "function"
    },
    {
      "constant": true,
      "inputs": [],
      "name": "holder",
      "outputs": [
        {
          "name": "",
          "type": "address"
        }
      ],
      "payable": false,
      "stateMutability": "view",
      "type": "function"
    },
    {
      "constant": false,
      "inputs": [
        {
          "name": "_beneficiary",
          "type": "address"
        }
      ],
      "name": "buyTokens",
      "outputs": [],
      "payable": true,
      "stateMutability": "payable",
      "type": "function"
    },
    {
      "constant": false,
      "inputs": [
        {
          "name": "newOwner",
          "type": "address"
        }
      ],
      "name": "transferOwnership",
      "outputs": [],
      "payable": false,
      "stateMutability": "nonpayable",
      "type": "function"
    },
    {
      "constant": true,
      "inputs": [],
      "name": "token",
      "outputs": [
        {
          "name": "",
          "type": "address"
        }
      ],
      "payable": false,
      "stateMutability": "view",
      "type": "function"
    },
    {
      "inputs": [
        {
          "name": "_owner",
          "type": "address"
        },
        {
          "name": "_creator",
          "type": "address"
        },
        {
          "name": "_openingTime",
          "type": "uint256"
        },
        {
          "name": "_closingTime",
          "type": "uint256"
        },
        {
          "name": "_rates",
          "type": "uint256[]"
        },
        {
          "name": "_wallet",
          "type": "address"
        },
        {
          "name": "_token",
          "type": "address"
        }
      ],
      "payable": false,
      "stateMutability": "nonpayable",
      "type": "constructor"
    },
    {
      "payable": true,
      "stateMutability": "payable",
      "type": "fallback"
    },
    {
      "anonymous": false,
      "inputs": [
        {
          "indexed": true,
          "name": "purchaser",
          "type": "address"
        },
        {
          "indexed": true,
          "name": "beneficiary",
          "type": "address"
        },
        {
          "indexed": false,
          "name": "value",
          "type": "uint256"
        },
        {
          "indexed": false,
          "name": "amount",
          "type": "uint256"
        }
      ],
      "name": "TokenPurchase",
      "type": "event"
    },
    {
      "anonymous": false,
      "inputs": [
        {
          "indexed": true,
          "name": "previousOwner",
          "type": "address"
        },
        {
          "indexed": true,
          "name": "newOwner",
          "type": "address"
        }
      ],
      "name": "OwnershipTransferred",
      "type": "event"
    },
    {
      "constant": true,
      "inputs": [],
      "name": "getCurrentRate",
      "outputs": [
        {
          "name": "",
          "type": "uint256"
        }
      ],
      "payable": false,
      "stateMutability": "view",
      "type": "function"
    }
  ],
  "bytecode": "0x606060405234156200001057600080fd5b6040516200126538038062001265833981016040528080519060200190919080519060200190919080519060200190919080519060200190919080518201919060200180519060200190919080519060200190919050508484600184848b8b8073ffffffffffffffffffffffffffffffffffffffff16630c05b3c56000604051602001526040518163ffffffff167c0100000000000000000000000000000000000000000000000000000000028152600401602060405180830381600087803b1515620000dc57600080fd5b6102c65a03f11515620000ee57600080fd5b505050604051805190506001336000806101000a81548173ffffffffffffffffffffffffffffffffffffffff021916908373ffffffffffffffffffffffffffffffffffffffff16021790555080600060146101000a81548167ffffffffffffffff021916908367ffffffffffffffff16021790555081600160006101000a81548173ffffffffffffffffffffffffffffffffffffffff021916908373ffffffffffffffffffffffffffffffffffffffff160217905550505081600260006101000a81548173ffffffffffffffffffffffffffffffffffffffff021916908373ffffffffffffffffffffffffffffffffffffffff1602179055505050600083111515620001f957600080fd5b600073ffffffffffffffffffffffffffffffffffffffff168273ffffffffffffffffffffffffffffffffffffffff16141515156200023657600080fd5b600073ffffffffffffffffffffffffffffffffffffffff168173ffffffffffffffffffffffffffffffffffffffff16141515156200027357600080fd5b8260058190555081600460006101000a81548173ffffffffffffffffffffffffffffffffffffffff021916908373ffffffffffffffffffffffffffffffffffffffff16021790555080600360006101000a81548173ffffffffffffffffffffffffffffffffffffffff021916908373ffffffffffffffffffffffffffffffffffffffff1602179055505050504282101515156200030f57600080fd5b8181101515156200031f57600080fd5b8160078190555080600881905550505086600260006101000a81548173ffffffffffffffffffffffffffffffffffffffff021916908373ffffffffffffffffffffffffffffffffffffffff16021790555082600990805190602001906200038892919062000396565b505050505050505062000410565b828054828255906000526020600020908101928215620003d5579160200282015b82811115620003d4578251825591602001919060010190620003b7565b5b509050620003e49190620003e8565b5090565b6200040d91905b8082111562000409576000816000905550600101620003ef565b5090565b90565b610e4580620004206000396000f300606060405260043610610107576000357c0100000000000000000000000000000000000000000000000000000000900463ffffffff1680630c05b3c5146101125780630d8e6e2c146101675780631515bc2b146101a45780632c4e722e146101d15780634042b66f146101fa57806346995b1b146102235780634b6753bc1461029c578063521eb273146102c557806354fd4d501461031a578063893d20e8146103575780638da5cb5b146103ac578063b7a8807c14610401578063d979f5aa1461042a578063dd418ae214610463578063e534155d1461049a578063ec8ac4d8146104ef578063f2fde38b1461051d578063f7fb07b014610556578063fc0c546a1461057f575b610110336105d4565b005b341561011d57600080fd5b6101256106a2565b604051808273ffffffffffffffffffffffffffffffffffffffff1673ffffffffffffffffffffffffffffffffffffffff16815260200191505060405180910390f35b341561017257600080fd5b61017a6106cc565b604051808267ffffffffffffffff1667ffffffffffffffff16815260200191505060405180910390f35b34156101af57600080fd5b6101b76106e9565b604051808215151515815260200191505060405180910390f35b34156101dc57600080fd5b6101e46106f5565b6040518082815260200191505060405180910390f35b341561020557600080fd5b61020d6106fb565b6040518082815260200191505060405180910390f35b341561022e57600080fd5b61025a600480803573ffffffffffffffffffffffffffffffffffffffff16906020019091905050610701565b604051808273ffffffffffffffffffffffffffffffffffffffff1673ffffffffffffffffffffffffffffffffffffffff16815260200191505060405180910390f35b34156102a757600080fd5b6102af610713565b6040518082815260200191505060405180910390f35b34156102d057600080fd5b6102d8610719565b604051808273ffffffffffffffffffffffffffffffffffffffff1673ffffffffffffffffffffffffffffffffffffffff16815260200191505060405180910390f35b341561032557600080fd5b61032d61073f565b604051808267ffffffffffffffff1667ffffffffffffffff16815260200191505060405180910390f35b341561036257600080fd5b61036a610759565b604051808273ffffffffffffffffffffffffffffffffffffffff1673ffffffffffffffffffffffffffffffffffffffff16815260200191505060405180910390f35b34156103b757600080fd5b6103bf610783565b604051808273ffffffffffffffffffffffffffffffffffffffff1673ffffffffffffffffffffffffffffffffffffffff16815260200191505060405180910390f35b341561040c57600080fd5b6104146107a9565b6040518082815260200191505060405180910390f35b341561043557600080fd5b610461600480803573ffffffffffffffffffffffffffffffffffffffff169060200190919050506107af565b005b341561046e57600080fd5b61048460048080359060200190919050506107f3565b6040518082815260200191505060405180910390f35b34156104a557600080fd5b6104ad610817565b604051808273ffffffffffffffffffffffffffffffffffffffff1673ffffffffffffffffffffffffffffffffffffffff16815260200191505060405180910390f35b61051b600480803573ffffffffffffffffffffffffffffffffffffffff169060200190919050506105d4565b005b341561052857600080fd5b610554600480803573ffffffffffffffffffffffffffffffffffffffff1690602001909190505061083d565b005b341561056157600080fd5b610569610992565b6040518082815260200191505060405180910390f35b341561058a57600080fd5b6105926109fb565b604051808273ffffffffffffffffffffffffffffffffffffffff1673ffffffffffffffffffffffffffffffffffffffff16815260200191505060405180910390f35b6000803491506105e48383610a21565b6105ed82610a4e565b905061060482600654610a7690919063ffffffff16565b6006819055506106148382610a94565b8273ffffffffffffffffffffffffffffffffffffffff163373ffffffffffffffffffffffffffffffffffffffff167f623b3804fa71d67900d064613da8f94b9617215ee90799290593e1745087ad188484604051808381526020018281526020019250505060405180910390a361068b8383610aa2565b610693610aa6565b61069d8383610b0a565b505050565b6000600160009054906101000a900473ffffffffffffffffffffffffffffffffffffffff16905090565b60008060149054906101000a900467ffffffffffffffff16905090565b60006008544211905090565b60055481565b60065481565b600061070c82610b0e565b9050919050565b60085481565b600460009054906101000a900473ffffffffffffffffffffffffffffffffffffffff1681565b600060149054906101000a900467ffffffffffffffff1681565b6000600260009054906101000a900473ffffffffffffffffffffffffffffffffffffffff16905090565b600260009054906101000a900473ffffffffffffffffffffffffffffffffffffffff1681565b60075481565b80600160006101000a81548173ffffffffffffffffffffffffffffffffffffffff021916908373ffffffffffffffffffffffffffffffffffffffff16021790555050565b60098181548110151561080257fe5b90600052602060002090016000915090505481565b600160009054906101000a900473ffffffffffffffffffffffffffffffffffffffff1681565b6000809054906101000a900473ffffffffffffffffffffffffffffffffffffffff1673ffffffffffffffffffffffffffffffffffffffff163373ffffffffffffffffffffffffffffffffffffffff1614151561089857600080fd5b600073ffffffffffffffffffffffffffffffffffffffff168173ffffffffffffffffffffffffffffffffffffffff16141515156108d457600080fd5b8073ffffffffffffffffffffffffffffffffffffffff166000809054906101000a900473ffffffffffffffffffffffffffffffffffffffff1673ffffffffffffffffffffffffffffffffffffffff167f8be0079c531659141344cd1fd0a4f28419497f9722a3daafe3b4186f6b6457e060405160405180910390a3806000806101000a81548173ffffffffffffffffffffffffffffffffffffffff021916908373ffffffffffffffffffffffffffffffffffffffff16021790555050565b60008060006109ac60075442610c6d90919063ffffffff16565b91506109c462093a8083610c8690919063ffffffff16565b9050600980549050811015156109d957600080fd5b6009818154811015156109e857fe5b9060005260206000209001549250505090565b600360009054906101000a900473ffffffffffffffffffffffffffffffffffffffff1681565b6007544210158015610a3557506008544211155b1515610a4057600080fd5b610a4a8282610ca1565b5050565b600080610a59610992565b9050610a6e8382610cf190919063ffffffff16565b915050919050565b6000808284019050838110151515610a8a57fe5b8091505092915050565b610a9e8282610d2c565b5050565b5050565b600460009054906101000a900473ffffffffffffffffffffffffffffffffffffffff1673ffffffffffffffffffffffffffffffffffffffff166108fc349081150290604051600060405180830381858888f193505050501515610b0857600080fd5b565b5050565b6000806000610b1b6106a2565b91508173ffffffffffffffffffffffffffffffffffffffff1663fcd3e5506000604051602001526040518163ffffffff167c0100000000000000000000000000000000000000000000000000000000028152600401602060405180830381600087803b1515610b8957600080fd5b6102c65a03f11515610b9a57600080fd5b5050506040518051905090508073ffffffffffffffffffffffffffffffffffffffff16636f57a559856000604051602001526040518263ffffffff167c0100000000000000000000000000000000000000000000000000000000028152600401808273ffffffffffffffffffffffffffffffffffffffff1673ffffffffffffffffffffffffffffffffffffffff168152602001915050602060405180830381600087803b1515610c4957600080fd5b6102c65a03f11515610c5a57600080fd5b5050506040518051905092505050919050565b6000828211151515610c7b57fe5b818303905092915050565b6000808284811515610c9457fe5b0490508091505092915050565b600073ffffffffffffffffffffffffffffffffffffffff168273ffffffffffffffffffffffffffffffffffffffff1614151515610cdd57600080fd5b60008114151515610ced57600080fd5b5050565b6000806000841415610d065760009150610d25565b8284029050828482811515610d1757fe5b04141515610d2157fe5b8091505b5092915050565b600360009054906101000a900473ffffffffffffffffffffffffffffffffffffffff1673ffffffffffffffffffffffffffffffffffffffff1663a9059cbb83836000604051602001526040518363ffffffff167c0100000000000000000000000000000000000000000000000000000000028152600401808373ffffffffffffffffffffffffffffffffffffffff1673ffffffffffffffffffffffffffffffffffffffff16815260200182815260200192505050602060405180830381600087803b1515610df957600080fd5b6102c65a03f11515610e0a57600080fd5b505050604051805190505050505600a165627a7a72305820220b9fdf6a08fac2688363930858501393a491281d0d64748767fa86f5112f0a0029",
  "source": "pragma solidity ^0.4.18;\r\nimport \"../node_modules/zeppelin-solidity/contracts/token/ERC20/MintableToken.sol\";\r\nimport \"../node_modules/zeppelin-solidity/contracts/crowdsale/Crowdsale.sol\";\r\nimport \"../node_modules/zeppelin-solidity/contracts/crowdsale/validation/TimedCrowdsale.sol\";\r\nimport \"./Astral.sol\";\r\n\r\n\r\ncontract SampleToken is iDocument, MintableToken{\r\n\r\n  function SampleToken(address _owner, iCreator _creator, string _name, string _symbol, uint256 _decimals ) public iDocument(_owner,_creator){\r\n        setVersion(2);\r\n        name = _name;\r\n        symbol = _symbol;\r\n        decimals= _decimals;\r\n  }\r\n  string public name;\r\n  string public symbol;\r\n  uint256 public decimals;\r\n\r\n}\r\n\r\ncontract SampleTokenCreator is iCreator{\r\n\r\n    function SampleTokenCreator(iBaseHolder _holder, uint64 _version) public iCreator(_holder, _version) {\r\n    }\r\n\r\n    function createDocumentBuilder (address _curator) public returns (iDocumentBuilder _newDocumentBuilder) {\r\n        _newDocumentBuilder = new SampleTokenBuilder(_curator,this);\r\n    }\r\n}\r\n\r\ncontract SampleTokenBuilder is iDocumentBuilder{\r\n\r\n  string internal name;\r\n  string internal symbol;\r\n  uint256 internal decimals;\r\n\r\n  function SampleTokenBuilder  (address _curator, iCreator _creator) public iDocumentBuilder(_curator,_creator){\r\n\r\n  }\r\n\r\n  function getName() constant onlyOwner public returns (string){\r\n    return name;\r\n  }\r\n  function getSymbol() constant onlyOwner public returns (string){\r\n    return symbol;\r\n  }\r\n  function getDecimals() constant onlyOwner public returns (uint256){\r\n    return decimals;\r\n  }\r\n  function setName(string _name) onlyOwner whileNotCreated public{\r\n    name=_name;\r\n  }\r\n  function setSymbol(string _symbol) onlyOwner whileNotCreated public{\r\n    symbol=_symbol;\r\n  }\r\n  function setDecimals(uint256 _decimals) onlyOwner whileNotCreated public{\r\n    decimals=_decimals;\r\n  }\r\n  function build() public onlyOwner whileNotCreated setCreatedOnSuccess returns (iDocument _doc) {\r\n    require(bytes(name).length>0 && bytes(symbol).length>0 && decimals>0);\r\n    _doc= new SampleToken(owner,creator,name, symbol,decimals);\r\n    creator.getHolder().registerDocument(owner,_doc);\r\n  }\r\n}\r\n\r\n\r\n\r\n\r\n\r\ncontract IncreasingPriceCrowdsale is Ownable ,iDocument,TimedCrowdsale {\r\n using SafeMath for uint256;\r\n\r\n\r\n uint256[]  public rates ;\r\n /**\r\n  * @dev Constructor, takes intial and final rates of tokens received per wei contributed.\r\n    */\r\n function IncreasingPriceCrowdsale(address _owner, iCreator _creator,uint256 _openingTime,uint256 _closingTime,uint256[] _rates,address _wallet, ERC20 _token) public iDocument(_owner,_creator) TimedCrowdsale(_openingTime,_closingTime) Crowdsale(1,  _wallet,  _token){\r\n   owner = _owner;\r\n    rates = _rates;\r\n }\r\n\r\n /*function setOpeningTime(uint256 _openingTime)  public onlyOwner{\r\n   require(rates.length = 0);\r\n   openingTime=_openingTime;\r\n }*/\r\n\r\n\r\n /*function setRate(uint256[] _rates)  public onlyOwner returns (uint256 len ){\r\n   require(openingTime>0);\r\n   rates = _rates[];\r\n   len =rates.length;\r\n   closingTime=openingTime.add(len.mul(60*60*24*7));\r\n   return rates.length;\r\n }*/\r\n /*function setToken(ERC20 _token) public onlyOwner {\r\n  token=_token;\r\n }\r\n function setWallet(address _wallet) public onlyOwner {\r\n  wallet=_wallet;\r\n }*/\r\n\r\n /**\r\n  * @dev Returns the rate of tokens per wei at the present time.\r\n  * Note that, as price _increases_ with time, the rate _decreases_.\r\n  * @return The number of tokens a buyer gets per wei at a given time\r\n  */\r\n function getCurrentRate() public view returns (uint256) {\r\n   uint256 elapsedTime = now.sub(openingTime);\r\n   uint256 weekNumber = elapsedTime.div(60*60*24*7);\r\n   require(weekNumber < rates.length);\r\n   return rates[weekNumber];\r\n }\r\n\r\n /**\r\n  * @dev Overrides parent method taking into account variable rate.\r\n  * @param _weiAmount The value in wei to be converted into tokens\r\n  * @return The number of tokens _weiAmount wei will buy at present time\r\n  */\r\n function _getTokenAmount(uint256 _weiAmount) internal view returns (uint256) {\r\n   uint256 currentRate = getCurrentRate();\r\n   return currentRate.mul(_weiAmount);\r\n }\r\n\r\n}\r\n\r\n\r\n\r\ncontract IncreasingPriceCrowdsaleCreator is iCreator{\r\n\r\n    function IncreasingPriceCrowdsaleCreator(iBaseHolder _holder, uint64 _version) public iCreator(_holder, _version) {\r\n    }\r\n\r\n    function createDocumentBuilder (address _curator) public returns (iDocumentBuilder _newDocumentBuilder) {\r\n        _newDocumentBuilder = new SampleTokenBuilder(_curator,this);\r\n    }\r\n}\r\n\r\ncontract IncreasingPriceCrowdsaleBuilder is iDocumentBuilder{\r\n\r\n  ERC20 internal token;\r\n  address internal wallet;\r\n  uint256 internal openingTime;\r\n//  uint256 internal closingTime;\r\n\r\n  uint256[] rate;// index = week, value = rate;\r\n\r\n  function resetRates() public onlyOwner whileNotCreated{\r\n    rate.length=0;\r\n  }\r\n  function nextWeekRate(uint256 nwr) public onlyOwner whileNotCreated returns(uint256 _weekNumber) {\r\n    _weekNumber=rate.push(nwr);\r\n  }\r\n\r\n  function getToken() constant onlyOwner public returns (ERC20){\r\n    return token;\r\n  }\r\n  function getWallet() constant onlyOwner public returns (address){\r\n    return wallet;\r\n  }\r\n  function getOpeningTime() constant onlyOwner public returns (uint256){\r\n    return openingTime;\r\n  }\r\n  function getRates() constant onlyOwner public returns (uint256[]){\r\n    return rate;\r\n  }\r\n\r\n  function setToken(ERC20 _token) onlyOwner whileNotCreated public{\r\n    token=_token;\r\n  }\r\n  function setWallet(address _wallet) onlyOwner whileNotCreated public{\r\n    wallet=_wallet;\r\n  }\r\n  function setOpeningTime(uint256 _openingTime) onlyOwner whileNotCreated public{\r\n    openingTime=_openingTime;\r\n  }\r\n\r\n\r\n  function IncreasingPriceCrowdsaleBuilder  (address _curator, iCreator _creator) public iDocumentBuilder(_curator,_creator){\r\n\r\n  }\r\n\r\n  function build() public onlyOwner whileNotCreated setCreatedOnSuccess returns (iDocument _doc) {\r\n    require(address(token)!=address(0));\r\n    require(wallet!=address(0));\r\n    require(rate.length>0);\r\n    require(openingTime>now);\r\n    uint256 closingTime = openingTime+(rate.length* 60*60*24*7);\r\n    IncreasingPriceCrowdsale ipc= new IncreasingPriceCrowdsale(owner,creator,openingTime,closingTime,rate,wallet,token);\r\n  //  ipc.setToken(token);\r\n  //  ipc.setOpeningTime(openingTime);\r\n  //  ipc.setRate(rate);\r\n  //  ipc.setWallet(wallet);\r\n    _doc=ipc;\r\n    creator.getHolder().registerDocument(owner,_doc);\r\n  }\r\n}\r\n",
  "sourcePath": "D:\\blockchainDiploma\\astral\\contracts\\ICO.sol",
  "compiler": {
    "name": "solc",
    "version": "0.4.19+commit.c4cbbb05.Emscripten.clang"
  },
  "schemaVersion": "2.0.0",
  "updatedAt": "2018-04-25T20:51:44.948Z"
}