{
  "contractName": "SampleToken",
  "abi": [
    {
      "constant": true,
      "inputs": [],
      "name": "mintingFinished",
      "outputs": [
        {
          "name": "",
          "type": "bool"
        }
      ],
      "payable": false,
      "stateMutability": "view",
      "type": "function"
    },
    {
      "constant": true,
      "inputs": [],
      "name": "name",
      "outputs": [
        {
          "name": "",
          "type": "string"
        }
      ],
      "payable": false,
      "stateMutability": "view",
      "type": "function"
    },
    {
      "constant": false,
      "inputs": [
        {
          "name": "_spender",
          "type": "address"
        },
        {
          "name": "_value",
          "type": "uint256"
        }
      ],
      "name": "approve",
      "outputs": [
        {
          "name": "",
          "type": "bool"
        }
      ],
      "payable": false,
      "stateMutability": "nonpayable",
      "type": "function"
    },
    {
      "constant": true,
      "inputs": [],
      "name": "getHolder",
      "outputs": [
        {
          "name": "bh",
          "type": "address"
        }
      ],
      "payable": false,
      "stateMutability": "view",
      "type": "function"
    },
    {
      "constant": true,
      "inputs": [],
      "name": "getVersion",
      "outputs": [
        {
          "name": "_version",
          "type": "uint64"
        }
      ],
      "payable": false,
      "stateMutability": "view",
      "type": "function"
    },
    {
      "constant": true,
      "inputs": [],
      "name": "totalSupply",
      "outputs": [
        {
          "name": "",
          "type": "uint256"
        }
      ],
      "payable": false,
      "stateMutability": "view",
      "type": "function"
    },
    {
      "constant": false,
      "inputs": [
        {
          "name": "_from",
          "type": "address"
        },
        {
          "name": "_to",
          "type": "address"
        },
        {
          "name": "_value",
          "type": "uint256"
        }
      ],
      "name": "transferFrom",
      "outputs": [
        {
          "name": "",
          "type": "bool"
        }
      ],
      "payable": false,
      "stateMutability": "nonpayable",
      "type": "function"
    },
    {
      "constant": true,
      "inputs": [],
      "name": "decimals",
      "outputs": [
        {
          "name": "",
          "type": "uint256"
        }
      ],
      "payable": false,
      "stateMutability": "view",
      "type": "function"
    },
    {
      "constant": false,
      "inputs": [
        {
          "name": "_to",
          "type": "address"
        },
        {
          "name": "_amount",
          "type": "uint256"
        }
      ],
      "name": "mint",
      "outputs": [
        {
          "name": "",
          "type": "bool"
        }
      ],
      "payable": false,
      "stateMutability": "nonpayable",
      "type": "function"
    },
    {
      "constant": false,
      "inputs": [
        {
          "name": "_newOwner",
          "type": "address"
        }
      ],
      "name": "wantSameContract",
      "outputs": [
        {
          "name": "_newDoc",
          "type": "address"
        }
      ],
      "payable": false,
      "stateMutability": "nonpayable",
      "type": "function"
    },
    {
      "constant": true,
      "inputs": [],
      "name": "version",
      "outputs": [
        {
          "name": "",
          "type": "uint64"
        }
      ],
      "payable": false,
      "stateMutability": "view",
      "type": "function"
    },
    {
      "constant": false,
      "inputs": [
        {
          "name": "_spender",
          "type": "address"
        },
        {
          "name": "_subtractedValue",
          "type": "uint256"
        }
      ],
      "name": "decreaseApproval",
      "outputs": [
        {
          "name": "",
          "type": "bool"
        }
      ],
      "payable": false,
      "stateMutability": "nonpayable",
      "type": "function"
    },
    {
      "constant": true,
      "inputs": [
        {
          "name": "_owner",
          "type": "address"
        }
      ],
      "name": "balanceOf",
      "outputs": [
        {
          "name": "balance",
          "type": "uint256"
        }
      ],
      "payable": false,
      "stateMutability": "view",
      "type": "function"
    },
    {
      "constant": false,
      "inputs": [],
      "name": "finishMinting",
      "outputs": [
        {
          "name": "",
          "type": "bool"
        }
      ],
      "payable": false,
      "stateMutability": "nonpayable",
      "type": "function"
    },
    {
      "constant": true,
      "inputs": [],
      "name": "getOwner",
      "outputs": [
        {
          "name": "_owner",
          "type": "address"
        }
      ],
      "payable": false,
      "stateMutability": "view",
      "type": "function"
    },
    {
      "constant": true,
      "inputs": [],
      "name": "owner",
      "outputs": [
        {
          "name": "",
          "type": "address"
        }
      ],
      "payable": false,
      "stateMutability": "view",
      "type": "function"
    },
    {
      "constant": true,
      "inputs": [],
      "name": "symbol",
      "outputs": [
        {
          "name": "",
          "type": "string"
        }
      ],
      "payable": false,
      "stateMutability": "view",
      "type": "function"
    },
    {
      "constant": false,
      "inputs": [
        {
          "name": "_to",
          "type": "address"
        },
        {
          "name": "_value",
          "type": "uint256"
        }
      ],
      "name": "transfer",
      "outputs": [
        {
          "name": "",
          "type": "bool"
        }
      ],
      "payable": false,
      "stateMutability": "nonpayable",
      "type": "function"
    },
    {
      "constant": false,
      "inputs": [
        {
          "name": "_spender",
          "type": "address"
        },
        {
          "name": "_addedValue",
          "type": "uint256"
        }
      ],
      "name": "increaseApproval",
      "outputs": [
        {
          "name": "",
          "type": "bool"
        }
      ],
      "payable": false,
      "stateMutability": "nonpayable",
      "type": "function"
    },
    {
      "constant": false,
      "inputs": [
        {
          "name": "bh",
          "type": "address"
        }
      ],
      "name": "setHolder",
      "outputs": [],
      "payable": false,
      "stateMutability": "nonpayable",
      "type": "function"
    },
    {
      "constant": true,
      "inputs": [
        {
          "name": "_owner",
          "type": "address"
        },
        {
          "name": "_spender",
          "type": "address"
        }
      ],
      "name": "allowance",
      "outputs": [
        {
          "name": "",
          "type": "uint256"
        }
      ],
      "payable": false,
      "stateMutability": "view",
      "type": "function"
    },
    {
      "constant": true,
      "inputs": [],
      "name": "holder",
      "outputs": [
        {
          "name": "",
          "type": "address"
        }
      ],
      "payable": false,
      "stateMutability": "view",
      "type": "function"
    },
    {
      "constant": false,
      "inputs": [
        {
          "name": "newOwner",
          "type": "address"
        }
      ],
      "name": "transferOwnership",
      "outputs": [],
      "payable": false,
      "stateMutability": "nonpayable",
      "type": "function"
    },
    {
      "inputs": [
        {
          "name": "_owner",
          "type": "address"
        },
        {
          "name": "_creator",
          "type": "address"
        },
        {
          "name": "_name",
          "type": "string"
        },
        {
          "name": "_symbol",
          "type": "string"
        },
        {
          "name": "_decimals",
          "type": "uint256"
        }
      ],
      "payable": false,
      "stateMutability": "nonpayable",
      "type": "constructor"
    },
    {
      "anonymous": false,
      "inputs": [
        {
          "indexed": true,
          "name": "to",
          "type": "address"
        },
        {
          "indexed": false,
          "name": "amount",
          "type": "uint256"
        }
      ],
      "name": "Mint",
      "type": "event"
    },
    {
      "anonymous": false,
      "inputs": [],
      "name": "MintFinished",
      "type": "event"
    },
    {
      "anonymous": false,
      "inputs": [
        {
          "indexed": true,
          "name": "previousOwner",
          "type": "address"
        },
        {
          "indexed": true,
          "name": "newOwner",
          "type": "address"
        }
      ],
      "name": "OwnershipTransferred",
      "type": "event"
    },
    {
      "anonymous": false,
      "inputs": [
        {
          "indexed": true,
          "name": "owner",
          "type": "address"
        },
        {
          "indexed": true,
          "name": "spender",
          "type": "address"
        },
        {
          "indexed": false,
          "name": "value",
          "type": "uint256"
        }
      ],
      "name": "Approval",
      "type": "event"
    },
    {
      "anonymous": false,
      "inputs": [
        {
          "indexed": true,
          "name": "from",
          "type": "address"
        },
        {
          "indexed": true,
          "name": "to",
          "type": "address"
        },
        {
          "indexed": false,
          "name": "value",
          "type": "uint256"
        }
      ],
      "name": "Transfer",
      "type": "event"
    }
  ],
  "bytecode": "0x60606040526000600560146101000a81548160ff02191690831515021790555034156200002b57600080fd5b60405162002098380380620020988339810160405280805190602001909190805190602001909190805182019190602001805182019190602001805190602001909190505084848073ffffffffffffffffffffffffffffffffffffffff16630c05b3c56000604051602001526040518163ffffffff167c0100000000000000000000000000000000000000000000000000000000028152600401602060405180830381600087803b1515620000df57600080fd5b6102c65a03f11515620000f157600080fd5b505050604051805190506001806000806101000a81548167ffffffffffffffff021916908367ffffffffffffffff16021790555081600060086101000a81548173ffffffffffffffffffffffffffffffffffffffff021916908373ffffffffffffffffffffffffffffffffffffffff160217905550505081600160006101000a81548173ffffffffffffffffffffffffffffffffffffffff021916908373ffffffffffffffffffffffffffffffffffffffff160217905550505033600560006101000a81548173ffffffffffffffffffffffffffffffffffffffff021916908373ffffffffffffffffffffffffffffffffffffffff1602179055506200020c6002620002506401000000000262001d07176401000000009004565b8260069080519060200190620002249291906200027b565b5081600790805190602001906200023d9291906200027b565b508060088190555050505050506200032a565b806000806101000a81548167ffffffffffffffff021916908367ffffffffffffffff16021790555050565b828054600181600116156101000203166002900490600052602060002090601f016020900481019282601f10620002be57805160ff1916838001178555620002ef565b82800160010185558215620002ef579182015b82811115620002ee578251825591602001919060010190620002d1565b5b509050620002fe919062000302565b5090565b6200032791905b808211156200032357600081600090555060010162000309565b5090565b90565b611d5e806200033a6000396000f300606060405260043610610133576000357c0100000000000000000000000000000000000000000000000000000000900463ffffffff16806305d2035b1461013857806306fdde0314610165578063095ea7b3146101f35780630c05b3c51461024d5780630d8e6e2c146102a257806318160ddd146102df57806323b872dd14610308578063313ce5671461038157806340c10f19146103aa57806346995b1b1461040457806354fd4d501461047d57806366188463146104ba57806370a08231146105145780637d64bcb414610561578063893d20e81461058e5780638da5cb5b146105e357806395d89b4114610638578063a9059cbb146106c6578063d73dd62314610720578063d979f5aa1461077a578063dd62ed3e146107b3578063e534155d1461081f578063f2fde38b14610874575b600080fd5b341561014357600080fd5b61014b6108ad565b604051808215151515815260200191505060405180910390f35b341561017057600080fd5b6101786108c0565b6040518080602001828103825283818151815260200191508051906020019080838360005b838110156101b857808201518184015260208101905061019d565b50505050905090810190601f1680156101e55780820380516001836020036101000a031916815260200191505b509250505060405180910390f35b34156101fe57600080fd5b610233600480803573ffffffffffffffffffffffffffffffffffffffff1690602001909190803590602001909190505061095e565b604051808215151515815260200191505060405180910390f35b341561025857600080fd5b610260610a50565b604051808273ffffffffffffffffffffffffffffffffffffffff1673ffffffffffffffffffffffffffffffffffffffff16815260200191505060405180910390f35b34156102ad57600080fd5b6102b5610a79565b604051808267ffffffffffffffff1667ffffffffffffffff16815260200191505060405180910390f35b34156102ea57600080fd5b6102f2610a96565b6040518082815260200191505060405180910390f35b341561031357600080fd5b610367600480803573ffffffffffffffffffffffffffffffffffffffff1690602001909190803573ffffffffffffffffffffffffffffffffffffffff16906020019091908035906020019091905050610aa0565b604051808215151515815260200191505060405180910390f35b341561038c57600080fd5b610394610e5f565b6040518082815260200191505060405180910390f35b34156103b557600080fd5b6103ea600480803573ffffffffffffffffffffffffffffffffffffffff16906020019091908035906020019091905050610e65565b604051808215151515815260200191505060405180910390f35b341561040f57600080fd5b61043b600480803573ffffffffffffffffffffffffffffffffffffffff1690602001909190505061104d565b604051808273ffffffffffffffffffffffffffffffffffffffff1673ffffffffffffffffffffffffffffffffffffffff16815260200191505060405180910390f35b341561048857600080fd5b61049061105f565b604051808267ffffffffffffffff1667ffffffffffffffff16815260200191505060405180910390f35b34156104c557600080fd5b6104fa600480803573ffffffffffffffffffffffffffffffffffffffff16906020019091908035906020019091905050611078565b604051808215151515815260200191505060405180910390f35b341561051f57600080fd5b61054b600480803573ffffffffffffffffffffffffffffffffffffffff16906020019091905050611309565b6040518082815260200191505060405180910390f35b341561056c57600080fd5b610574611352565b604051808215151515815260200191505060405180910390f35b341561059957600080fd5b6105a161141a565b604051808273ffffffffffffffffffffffffffffffffffffffff1673ffffffffffffffffffffffffffffffffffffffff16815260200191505060405180910390f35b34156105ee57600080fd5b6105f6611444565b604051808273ffffffffffffffffffffffffffffffffffffffff1673ffffffffffffffffffffffffffffffffffffffff16815260200191505060405180910390f35b341561064357600080fd5b61064b61146a565b6040518080602001828103825283818151815260200191508051906020019080838360005b8381101561068b578082015181840152602081019050610670565b50505050905090810190601f1680156106b85780820380516001836020036101000a031916815260200191505b509250505060405180910390f35b34156106d157600080fd5b610706600480803573ffffffffffffffffffffffffffffffffffffffff16906020019091908035906020019091905050611508565b604051808215151515815260200191505060405180910390f35b341561072b57600080fd5b610760600480803573ffffffffffffffffffffffffffffffffffffffff1690602001909190803590602001909190505061172c565b604051808215151515815260200191505060405180910390f35b341561078557600080fd5b6107b1600480803573ffffffffffffffffffffffffffffffffffffffff16906020019091905050611928565b005b34156107be57600080fd5b610809600480803573ffffffffffffffffffffffffffffffffffffffff1690602001909190803573ffffffffffffffffffffffffffffffffffffffff1690602001909190505061196c565b6040518082815260200191505060405180910390f35b341561082a57600080fd5b6108326119f3565b604051808273ffffffffffffffffffffffffffffffffffffffff1673ffffffffffffffffffffffffffffffffffffffff16815260200191505060405180910390f35b341561087f57600080fd5b6108ab600480803573ffffffffffffffffffffffffffffffffffffffff16906020019091905050611a19565b005b600560149054906101000a900460ff1681565b60068054600181600116156101000203166002900480601f0160208091040260200160405190810160405280929190818152602001828054600181600116156101000203166002900480156109565780601f1061092b57610100808354040283529160200191610956565b820191906000526020600020905b81548152906001019060200180831161093957829003601f168201915b505050505081565b600081600460003373ffffffffffffffffffffffffffffffffffffffff1673ffffffffffffffffffffffffffffffffffffffff16815260200190815260200160002060008573ffffffffffffffffffffffffffffffffffffffff1673ffffffffffffffffffffffffffffffffffffffff168152602001908152602001600020819055508273ffffffffffffffffffffffffffffffffffffffff163373ffffffffffffffffffffffffffffffffffffffff167f8c5be1e5ebec7d5bd14f71427d1e84f3dd0314c0f7b2291e5b200ac8c7c3b925846040518082815260200191505060405180910390a36001905092915050565b60008060089054906101000a900473ffffffffffffffffffffffffffffffffffffffff16905090565b60008060009054906101000a900467ffffffffffffffff16905090565b6000600354905090565b60008073ffffffffffffffffffffffffffffffffffffffff168373ffffffffffffffffffffffffffffffffffffffff1614151515610add57600080fd5b600260008573ffffffffffffffffffffffffffffffffffffffff1673ffffffffffffffffffffffffffffffffffffffff168152602001908152602001600020548211151515610b2b57600080fd5b600460008573ffffffffffffffffffffffffffffffffffffffff1673ffffffffffffffffffffffffffffffffffffffff16815260200190815260200160002060003373ffffffffffffffffffffffffffffffffffffffff1673ffffffffffffffffffffffffffffffffffffffff168152602001908152602001600020548211151515610bb657600080fd5b610c0882600260008773ffffffffffffffffffffffffffffffffffffffff1673ffffffffffffffffffffffffffffffffffffffff16815260200190815260200160002054611b7190919063ffffffff16565b600260008673ffffffffffffffffffffffffffffffffffffffff1673ffffffffffffffffffffffffffffffffffffffff16815260200190815260200160002081905550610c9d82600260008673ffffffffffffffffffffffffffffffffffffffff1673ffffffffffffffffffffffffffffffffffffffff16815260200190815260200160002054611b8a90919063ffffffff16565b600260008573ffffffffffffffffffffffffffffffffffffffff1673ffffffffffffffffffffffffffffffffffffffff16815260200190815260200160002081905550610d6f82600460008773ffffffffffffffffffffffffffffffffffffffff1673ffffffffffffffffffffffffffffffffffffffff16815260200190815260200160002060003373ffffffffffffffffffffffffffffffffffffffff1673ffffffffffffffffffffffffffffffffffffffff16815260200190815260200160002054611b7190919063ffffffff16565b600460008673ffffffffffffffffffffffffffffffffffffffff1673ffffffffffffffffffffffffffffffffffffffff16815260200190815260200160002060003373ffffffffffffffffffffffffffffffffffffffff1673ffffffffffffffffffffffffffffffffffffffff168152602001908152602001600020819055508273ffffffffffffffffffffffffffffffffffffffff168473ffffffffffffffffffffffffffffffffffffffff167fddf252ad1be2c89b69c2b068fc378daa952ba7f163c4a11628f55a4df523b3ef846040518082815260200191505060405180910390a3600190509392505050565b60085481565b6000600560009054906101000a900473ffffffffffffffffffffffffffffffffffffffff1673ffffffffffffffffffffffffffffffffffffffff163373ffffffffffffffffffffffffffffffffffffffff16141515610ec357600080fd5b600560149054906101000a900460ff16151515610edf57600080fd5b610ef482600354611b8a90919063ffffffff16565b600381905550610f4c82600260008673ffffffffffffffffffffffffffffffffffffffff1673ffffffffffffffffffffffffffffffffffffffff16815260200190815260200160002054611b8a90919063ffffffff16565b600260008573ffffffffffffffffffffffffffffffffffffffff1673ffffffffffffffffffffffffffffffffffffffff168152602001908152602001600020819055508273ffffffffffffffffffffffffffffffffffffffff167f0f6798a560793a54c3bcfe86a93cde1e73087d944c0ea20544137d4121396885836040518082815260200191505060405180910390a28273ffffffffffffffffffffffffffffffffffffffff16600073ffffffffffffffffffffffffffffffffffffffff167fddf252ad1be2c89b69c2b068fc378daa952ba7f163c4a11628f55a4df523b3ef846040518082815260200191505060405180910390a36001905092915050565b600061105882611ba8565b9050919050565b6000809054906101000a900467ffffffffffffffff1681565b600080600460003373ffffffffffffffffffffffffffffffffffffffff1673ffffffffffffffffffffffffffffffffffffffff16815260200190815260200160002060008573ffffffffffffffffffffffffffffffffffffffff1673ffffffffffffffffffffffffffffffffffffffff16815260200190815260200160002054905080831115611189576000600460003373ffffffffffffffffffffffffffffffffffffffff1673ffffffffffffffffffffffffffffffffffffffff16815260200190815260200160002060008673ffffffffffffffffffffffffffffffffffffffff1673ffffffffffffffffffffffffffffffffffffffff1681526020019081526020016000208190555061121d565b61119c8382611b7190919063ffffffff16565b600460003373ffffffffffffffffffffffffffffffffffffffff1673ffffffffffffffffffffffffffffffffffffffff16815260200190815260200160002060008673ffffffffffffffffffffffffffffffffffffffff1673ffffffffffffffffffffffffffffffffffffffff168152602001908152602001600020819055505b8373ffffffffffffffffffffffffffffffffffffffff163373ffffffffffffffffffffffffffffffffffffffff167f8c5be1e5ebec7d5bd14f71427d1e84f3dd0314c0f7b2291e5b200ac8c7c3b925600460003373ffffffffffffffffffffffffffffffffffffffff1673ffffffffffffffffffffffffffffffffffffffff16815260200190815260200160002060008873ffffffffffffffffffffffffffffffffffffffff1673ffffffffffffffffffffffffffffffffffffffff168152602001908152602001600020546040518082815260200191505060405180910390a3600191505092915050565b6000600260008373ffffffffffffffffffffffffffffffffffffffff1673ffffffffffffffffffffffffffffffffffffffff168152602001908152602001600020549050919050565b6000600560009054906101000a900473ffffffffffffffffffffffffffffffffffffffff1673ffffffffffffffffffffffffffffffffffffffff163373ffffffffffffffffffffffffffffffffffffffff161415156113b057600080fd5b600560149054906101000a900460ff161515156113cc57600080fd5b6001600560146101000a81548160ff0219169083151502179055507fae5184fba832cb2b1f702aca6117b8d265eaf03ad33eb133f19dde0f5920fa0860405160405180910390a16001905090565b6000600160009054906101000a900473ffffffffffffffffffffffffffffffffffffffff16905090565b600560009054906101000a900473ffffffffffffffffffffffffffffffffffffffff1681565b60078054600181600116156101000203166002900480601f0160208091040260200160405190810160405280929190818152602001828054600181600116156101000203166002900480156115005780601f106114d557610100808354040283529160200191611500565b820191906000526020600020905b8154815290600101906020018083116114e357829003601f168201915b505050505081565b60008073ffffffffffffffffffffffffffffffffffffffff168373ffffffffffffffffffffffffffffffffffffffff161415151561154557600080fd5b600260003373ffffffffffffffffffffffffffffffffffffffff1673ffffffffffffffffffffffffffffffffffffffff16815260200190815260200160002054821115151561159357600080fd5b6115e582600260003373ffffffffffffffffffffffffffffffffffffffff1673ffffffffffffffffffffffffffffffffffffffff16815260200190815260200160002054611b7190919063ffffffff16565b600260003373ffffffffffffffffffffffffffffffffffffffff1673ffffffffffffffffffffffffffffffffffffffff1681526020019081526020016000208190555061167a82600260008673ffffffffffffffffffffffffffffffffffffffff1673ffffffffffffffffffffffffffffffffffffffff16815260200190815260200160002054611b8a90919063ffffffff16565b600260008573ffffffffffffffffffffffffffffffffffffffff1673ffffffffffffffffffffffffffffffffffffffff168152602001908152602001600020819055508273ffffffffffffffffffffffffffffffffffffffff163373ffffffffffffffffffffffffffffffffffffffff167fddf252ad1be2c89b69c2b068fc378daa952ba7f163c4a11628f55a4df523b3ef846040518082815260200191505060405180910390a36001905092915050565b60006117bd82600460003373ffffffffffffffffffffffffffffffffffffffff1673ffffffffffffffffffffffffffffffffffffffff16815260200190815260200160002060008673ffffffffffffffffffffffffffffffffffffffff1673ffffffffffffffffffffffffffffffffffffffff16815260200190815260200160002054611b8a90919063ffffffff16565b600460003373ffffffffffffffffffffffffffffffffffffffff1673ffffffffffffffffffffffffffffffffffffffff16815260200190815260200160002060008573ffffffffffffffffffffffffffffffffffffffff1673ffffffffffffffffffffffffffffffffffffffff168152602001908152602001600020819055508273ffffffffffffffffffffffffffffffffffffffff163373ffffffffffffffffffffffffffffffffffffffff167f8c5be1e5ebec7d5bd14f71427d1e84f3dd0314c0f7b2291e5b200ac8c7c3b925600460003373ffffffffffffffffffffffffffffffffffffffff1673ffffffffffffffffffffffffffffffffffffffff16815260200190815260200160002060008773ffffffffffffffffffffffffffffffffffffffff1673ffffffffffffffffffffffffffffffffffffffff168152602001908152602001600020546040518082815260200191505060405180910390a36001905092915050565b80600060086101000a81548173ffffffffffffffffffffffffffffffffffffffff021916908373ffffffffffffffffffffffffffffffffffffffff16021790555050565b6000600460008473ffffffffffffffffffffffffffffffffffffffff1673ffffffffffffffffffffffffffffffffffffffff16815260200190815260200160002060008373ffffffffffffffffffffffffffffffffffffffff1673ffffffffffffffffffffffffffffffffffffffff16815260200190815260200160002054905092915050565b600060089054906101000a900473ffffffffffffffffffffffffffffffffffffffff1681565b600560009054906101000a900473ffffffffffffffffffffffffffffffffffffffff1673ffffffffffffffffffffffffffffffffffffffff163373ffffffffffffffffffffffffffffffffffffffff16141515611a7557600080fd5b600073ffffffffffffffffffffffffffffffffffffffff168173ffffffffffffffffffffffffffffffffffffffff1614151515611ab157600080fd5b8073ffffffffffffffffffffffffffffffffffffffff16600560009054906101000a900473ffffffffffffffffffffffffffffffffffffffff1673ffffffffffffffffffffffffffffffffffffffff167f8be0079c531659141344cd1fd0a4f28419497f9722a3daafe3b4186f6b6457e060405160405180910390a380600560006101000a81548173ffffffffffffffffffffffffffffffffffffffff021916908373ffffffffffffffffffffffffffffffffffffffff16021790555050565b6000828211151515611b7f57fe5b818303905092915050565b6000808284019050838110151515611b9e57fe5b8091505092915050565b6000806000611bb5610a50565b91508173ffffffffffffffffffffffffffffffffffffffff1663fcd3e5506000604051602001526040518163ffffffff167c0100000000000000000000000000000000000000000000000000000000028152600401602060405180830381600087803b1515611c2357600080fd5b6102c65a03f11515611c3457600080fd5b5050506040518051905090508073ffffffffffffffffffffffffffffffffffffffff16636f57a559856000604051602001526040518263ffffffff167c0100000000000000000000000000000000000000000000000000000000028152600401808273ffffffffffffffffffffffffffffffffffffffff1673ffffffffffffffffffffffffffffffffffffffff168152602001915050602060405180830381600087803b1515611ce357600080fd5b6102c65a03f11515611cf457600080fd5b5050506040518051905092505050919050565b806000806101000a81548167ffffffffffffffff021916908367ffffffffffffffff160217905550505600a165627a7a723058204fba635906104bc836296215157e59b1e89beb17e2d265daadf7f1dea51336a20029",
  "source": "pragma solidity ^0.4.18;\r\nimport \"../node_modules/zeppelin-solidity/contracts/token/ERC20/MintableToken.sol\";\r\nimport \"../node_modules/zeppelin-solidity/contracts/crowdsale/Crowdsale.sol\";\r\nimport \"../node_modules/zeppelin-solidity/contracts/crowdsale/validation/TimedCrowdsale.sol\";\r\nimport \"./Astral.sol\";\r\n\r\n\r\ncontract SampleToken is iDocument, MintableToken{\r\n\r\n  function SampleToken(address _owner, iCreator _creator, string _name, string _symbol, uint256 _decimals ) public iDocument(_owner,_creator){\r\n        setVersion(2);\r\n        name = _name;\r\n        symbol = _symbol;\r\n        decimals= _decimals;\r\n  }\r\n  string public name;\r\n  string public symbol;\r\n  uint256 public decimals;\r\n\r\n}\r\n\r\ncontract SampleTokenCreator is iCreator{\r\n\r\n    function SampleTokenCreator(iBaseHolder _holder, uint64 _version) public iCreator(_holder, _version) {\r\n    }\r\n\r\n    function createDocumentBuilder (address _curator) public returns (iDocumentBuilder _newDocumentBuilder) {\r\n        _newDocumentBuilder = new SampleTokenBuilder(_curator,this);\r\n    }\r\n}\r\n\r\ncontract SampleTokenBuilder is iDocumentBuilder{\r\n\r\n  string internal name;\r\n  string internal symbol;\r\n  uint256 internal decimals;\r\n\r\n  function SampleTokenBuilder  (address _curator, iCreator _creator) public iDocumentBuilder(_curator,_creator){\r\n\r\n  }\r\n\r\n  function getName() constant onlyOwner public returns (string){\r\n    return name;\r\n  }\r\n  function getSymbol() constant onlyOwner public returns (string){\r\n    return symbol;\r\n  }\r\n  function getDecimals() constant onlyOwner public returns (uint256){\r\n    return decimals;\r\n  }\r\n  function setName(string _name) onlyOwner whileNotCreated public{\r\n    name=_name;\r\n  }\r\n  function setSymbol(string _symbol) onlyOwner whileNotCreated public{\r\n    symbol=_symbol;\r\n  }\r\n  function setDecimals(uint256 _decimals) onlyOwner whileNotCreated public{\r\n    decimals=_decimals;\r\n  }\r\n  function build() public onlyOwner whileNotCreated setCreatedOnSuccess returns (iDocument _doc) {\r\n    require(bytes(name).length>0 && bytes(symbol).length>0 && decimals>0);\r\n    _doc= new SampleToken(owner,creator,name, symbol,decimals);\r\n    creator.getHolder().registerDocument(owner,_doc);\r\n  }\r\n}\r\n\r\n\r\n\r\n\r\n\r\ncontract IncreasingPriceCrowdsale is Ownable ,iDocument,TimedCrowdsale {\r\n using SafeMath for uint256;\r\n\r\n\r\n uint256[]  public rates ;\r\n /**\r\n  * @dev Constructor, takes intial and final rates of tokens received per wei contributed.\r\n    */\r\n function IncreasingPriceCrowdsale(address _owner, iCreator _creator,uint256 _openingTime,uint256 _closingTime,uint256[] _rates,address _wallet, ERC20 _token) public iDocument(_owner,_creator) TimedCrowdsale(_openingTime,_closingTime) Crowdsale(1,  _wallet,  _token){\r\n   owner = _owner;\r\n    rates = _rates;\r\n }\r\n\r\n /*function setOpeningTime(uint256 _openingTime)  public onlyOwner{\r\n   require(rates.length = 0);\r\n   openingTime=_openingTime;\r\n }*/\r\n\r\n\r\n /*function setRate(uint256[] _rates)  public onlyOwner returns (uint256 len ){\r\n   require(openingTime>0);\r\n   rates = _rates[];\r\n   len =rates.length;\r\n   closingTime=openingTime.add(len.mul(60*60*24*7));\r\n   return rates.length;\r\n }*/\r\n /*function setToken(ERC20 _token) public onlyOwner {\r\n  token=_token;\r\n }\r\n function setWallet(address _wallet) public onlyOwner {\r\n  wallet=_wallet;\r\n }*/\r\n\r\n /**\r\n  * @dev Returns the rate of tokens per wei at the present time.\r\n  * Note that, as price _increases_ with time, the rate _decreases_.\r\n  * @return The number of tokens a buyer gets per wei at a given time\r\n  */\r\n function getCurrentRate() public view returns (uint256) {\r\n   uint256 elapsedTime = now.sub(openingTime);\r\n   uint256 weekNumber = elapsedTime.div(60*60*24*7);\r\n   require(weekNumber < rates.length);\r\n   return rates[weekNumber];\r\n }\r\n\r\n /**\r\n  * @dev Overrides parent method taking into account variable rate.\r\n  * @param _weiAmount The value in wei to be converted into tokens\r\n  * @return The number of tokens _weiAmount wei will buy at present time\r\n  */\r\n function _getTokenAmount(uint256 _weiAmount) internal view returns (uint256) {\r\n   uint256 currentRate = getCurrentRate();\r\n   return currentRate.mul(_weiAmount);\r\n }\r\n\r\n}\r\n\r\n\r\n\r\ncontract IncreasingPriceCrowdsaleCreator is iCreator{\r\n\r\n    function IncreasingPriceCrowdsaleCreator(iBaseHolder _holder, uint64 _version) public iCreator(_holder, _version) {\r\n    }\r\n\r\n    function createDocumentBuilder (address _curator) public returns (iDocumentBuilder _newDocumentBuilder) {\r\n        _newDocumentBuilder = new SampleTokenBuilder(_curator,this);\r\n    }\r\n}\r\n\r\ncontract IncreasingPriceCrowdsaleBuilder is iDocumentBuilder{\r\n\r\n  ERC20 internal token;\r\n  address internal wallet;\r\n  uint256 internal openingTime;\r\n//  uint256 internal closingTime;\r\n\r\n  uint256[] rate;// index = week, value = rate;\r\n\r\n  function resetRates() public onlyOwner whileNotCreated{\r\n    rate.length=0;\r\n  }\r\n  function nextWeekRate(uint256 nwr) public onlyOwner whileNotCreated returns(uint256 _weekNumber) {\r\n    _weekNumber=rate.push(nwr);\r\n  }\r\n\r\n  function getToken() constant onlyOwner public returns (ERC20){\r\n    return token;\r\n  }\r\n  function getWallet() constant onlyOwner public returns (address){\r\n    return wallet;\r\n  }\r\n  function getOpeningTime() constant onlyOwner public returns (uint256){\r\n    return openingTime;\r\n  }\r\n  function getRates() constant onlyOwner public returns (uint256[]){\r\n    return rate;\r\n  }\r\n\r\n  function setToken(ERC20 _token) onlyOwner whileNotCreated public{\r\n    token=_token;\r\n  }\r\n  function setWallet(address _wallet) onlyOwner whileNotCreated public{\r\n    wallet=_wallet;\r\n  }\r\n  function setOpeningTime(uint256 _openingTime) onlyOwner whileNotCreated public{\r\n    openingTime=_openingTime;\r\n  }\r\n\r\n\r\n  function IncreasingPriceCrowdsaleBuilder  (address _curator, iCreator _creator) public iDocumentBuilder(_curator,_creator){\r\n\r\n  }\r\n\r\n  function build() public onlyOwner whileNotCreated setCreatedOnSuccess returns (iDocument _doc) {\r\n    require(address(token)!=address(0));\r\n    require(wallet!=address(0));\r\n    require(rate.length>0);\r\n    require(openingTime>now);\r\n    uint256 closingTime = openingTime+(rate.length* 60*60*24*7);\r\n    IncreasingPriceCrowdsale ipc= new IncreasingPriceCrowdsale(owner,creator,openingTime,closingTime,rate,wallet,token);\r\n  //  ipc.setToken(token);\r\n  //  ipc.setOpeningTime(openingTime);\r\n  //  ipc.setRate(rate);\r\n  //  ipc.setWallet(wallet);\r\n    _doc=ipc;\r\n    creator.getHolder().registerDocument(owner,_doc);\r\n  }\r\n}\r\n",
  "sourcePath": "D:\\blockchainDiploma\\astral\\contracts\\ICO.sol",
  "compiler": {
    "name": "solc",
    "version": "0.4.19+commit.c4cbbb05.Emscripten.clang"
  },
  "schemaVersion": "2.0.0",
  "updatedAt": "2018-04-25T20:51:44.864Z"
}